{
  "_format": "hh3-artifact-1",
  "contractName": "ICOMarketplace",
  "sourceName": "contracts/PreSale.sol",
  "abi": [
    {
      "inputs": [],
      "stateMutability": "nonpayable",
      "type": "constructor"
    },
    {
      "anonymous": false,
      "inputs": [
        {
          "indexed": true,
          "internalType": "address",
          "name": "token",
          "type": "address"
        },
        {
          "indexed": false,
          "internalType": "uint256",
          "name": "price",
          "type": "uint256"
        },
        {
          "indexed": true,
          "internalType": "address",
          "name": "creator",
          "type": "address"
        },
        {
          "indexed": false,
          "internalType": "string",
          "name": "name",
          "type": "string"
        },
        {
          "indexed": false,
          "internalType": "string",
          "name": "symbol",
          "type": "string"
        }
      ],
      "name": "TokenAdded",
      "type": "event"
    },
    {
      "anonymous": false,
      "inputs": [
        {
          "indexed": true,
          "internalType": "address",
          "name": "token",
          "type": "address"
        },
        {
          "indexed": true,
          "internalType": "address",
          "name": "from",
          "type": "address"
        },
        {
          "indexed": false,
          "internalType": "uint256",
          "name": "amount",
          "type": "uint256"
        }
      ],
      "name": "TokenReceived",
      "type": "event"
    },
    {
      "anonymous": false,
      "inputs": [
        {
          "indexed": true,
          "internalType": "address",
          "name": "token",
          "type": "address"
        },
        {
          "indexed": true,
          "internalType": "address",
          "name": "to",
          "type": "address"
        },
        {
          "indexed": false,
          "internalType": "uint256",
          "name": "amount",
          "type": "uint256"
        }
      ],
      "name": "TokenTransferred",
      "type": "event"
    },
    {
      "anonymous": false,
      "inputs": [
        {
          "indexed": true,
          "internalType": "address",
          "name": "token",
          "type": "address"
        },
        {
          "indexed": true,
          "internalType": "address",
          "name": "to",
          "type": "address"
        },
        {
          "indexed": false,
          "internalType": "uint256",
          "name": "amount",
          "type": "uint256"
        }
      ],
      "name": "TokenWithdraw",
      "type": "event"
    },
    {
      "inputs": [
        {
          "internalType": "uint256",
          "name": "",
          "type": "uint256"
        }
      ],
      "name": "allSupportedTokens",
      "outputs": [
        {
          "internalType": "address",
          "name": "",
          "type": "address"
        }
      ],
      "stateMutability": "view",
      "type": "function"
    },
    {
      "inputs": [
        {
          "internalType": "address",
          "name": "_token",
          "type": "address"
        },
        {
          "internalType": "uint256",
          "name": "_amount",
          "type": "uint256"
        }
      ],
      "name": "buyToken",
      "outputs": [],
      "stateMutability": "payable",
      "type": "function"
    },
    {
      "inputs": [
        {
          "internalType": "address",
          "name": "_token",
          "type": "address"
        },
        {
          "internalType": "uint256",
          "name": "_price",
          "type": "uint256"
        }
      ],
      "name": "createICOSale",
      "outputs": [],
      "stateMutability": "nonpayable",
      "type": "function"
    },
    {
      "inputs": [],
      "name": "getAllTokens",
      "outputs": [
        {
          "components": [
            {
              "internalType": "address",
              "name": "token",
              "type": "address"
            },
            {
              "internalType": "string",
              "name": "name",
              "type": "string"
            },
            {
              "internalType": "string",
              "name": "symbol",
              "type": "string"
            },
            {
              "internalType": "uint256",
              "name": "price",
              "type": "uint256"
            },
            {
              "internalType": "bool",
              "name": "supported",
              "type": "bool"
            },
            {
              "internalType": "address",
              "name": "creator",
              "type": "address"
            }
          ],
          "internalType": "struct ICOMarketplace.TokenDetails[]",
          "name": "",
          "type": "tuple[]"
        }
      ],
      "stateMutability": "view",
      "type": "function"
    },
    {
      "inputs": [
        {
          "internalType": "address",
          "name": "_token",
          "type": "address"
        }
      ],
      "name": "getBalance",
      "outputs": [
        {
          "internalType": "uint256",
          "name": "",
          "type": "uint256"
        }
      ],
      "stateMutability": "view",
      "type": "function"
    },
    {
      "inputs": [],
      "name": "getSupportedTokens",
      "outputs": [
        {
          "internalType": "address[]",
          "name": "",
          "type": "address[]"
        }
      ],
      "stateMutability": "view",
      "type": "function"
    },
    {
      "inputs": [
        {
          "internalType": "address",
          "name": "_token",
          "type": "address"
        }
      ],
      "name": "getTokenDetails",
      "outputs": [
        {
          "components": [
            {
              "internalType": "address",
              "name": "token",
              "type": "address"
            },
            {
              "internalType": "string",
              "name": "name",
              "type": "string"
            },
            {
              "internalType": "string",
              "name": "symbol",
              "type": "string"
            },
            {
              "internalType": "uint256",
              "name": "price",
              "type": "uint256"
            },
            {
              "internalType": "bool",
              "name": "supported",
              "type": "bool"
            },
            {
              "internalType": "address",
              "name": "creator",
              "type": "address"
            }
          ],
          "internalType": "struct ICOMarketplace.TokenDetails",
          "name": "",
          "type": "tuple"
        }
      ],
      "stateMutability": "view",
      "type": "function"
    },
    {
      "inputs": [
        {
          "internalType": "address",
          "name": "_creator",
          "type": "address"
        }
      ],
      "name": "getTokensCreatedBy",
      "outputs": [
        {
          "components": [
            {
              "internalType": "address",
              "name": "token",
              "type": "address"
            },
            {
              "internalType": "string",
              "name": "name",
              "type": "string"
            },
            {
              "internalType": "string",
              "name": "symbol",
              "type": "string"
            },
            {
              "internalType": "uint256",
              "name": "price",
              "type": "uint256"
            },
            {
              "internalType": "bool",
              "name": "supported",
              "type": "bool"
            },
            {
              "internalType": "address",
              "name": "creator",
              "type": "address"
            }
          ],
          "internalType": "struct ICOMarketplace.TokenDetails[]",
          "name": "",
          "type": "tuple[]"
        }
      ],
      "stateMutability": "view",
      "type": "function"
    },
    {
      "inputs": [],
      "name": "owner",
      "outputs": [
        {
          "internalType": "address",
          "name": "",
          "type": "address"
        }
      ],
      "stateMutability": "view",
      "type": "function"
    },
    {
      "inputs": [
        {
          "internalType": "address",
          "name": "",
          "type": "address"
        }
      ],
      "name": "tokenDetails",
      "outputs": [
        {
          "internalType": "address",
          "name": "token",
          "type": "address"
        },
        {
          "internalType": "string",
          "name": "name",
          "type": "string"
        },
        {
          "internalType": "string",
          "name": "symbol",
          "type": "string"
        },
        {
          "internalType": "uint256",
          "name": "price",
          "type": "uint256"
        },
        {
          "internalType": "bool",
          "name": "supported",
          "type": "bool"
        },
        {
          "internalType": "address",
          "name": "creator",
          "type": "address"
        }
      ],
      "stateMutability": "view",
      "type": "function"
    },
    {
      "inputs": [
        {
          "internalType": "address",
          "name": "_token",
          "type": "address"
        },
        {
          "internalType": "uint256",
          "name": "_amount",
          "type": "uint256"
        }
      ],
      "name": "withdrawToken",
      "outputs": [],
      "stateMutability": "nonpayable",
      "type": "function"
    },
    {
      "stateMutability": "payable",
      "type": "receive"
    }
  ],
  "bytecode": "0x6080604052348015600e575f5ffd5b503360025f6101000a81548173ffffffffffffffffffffffffffffffffffffffff021916908373ffffffffffffffffffffffffffffffffffffffff160217905550612ed58061005c5f395ff3fe60806040526004361061009f575f3560e01c80638da5cb5b116100635780638da5cb5b146101c95780639e281a98146101f3578063d3c7c2c71461021b578063dd4be68314610245578063ddc0f31214610286578063f8b2cb4f146102c2576100df565b80632a074008146100e35780632a5c792a1461010b5780633a80f21d1461013557806368f8fc101461017157806388aa8bee1461018d576100df565b366100df576040517f08c379a00000000000000000000000000000000000000000000000000000000081526004016100d690611e6f565b60405180910390fd5b5f5ffd5b3480156100ee575f5ffd5b5061010960048036038101906101049190611f2b565b6102fe565b005b348015610116575f5ffd5b5061011f610633565b60405161012c9190612159565b60405180910390f35b348015610140575f5ffd5b5061015b60048036038101906101569190612179565b610946565b60405161016891906121b3565b60405180910390f35b61018b60048036038101906101869190611f2b565b610981565b005b348015610198575f5ffd5b506101b360048036038101906101ae91906121cc565b610ec5565b6040516101c09190612284565b60405180910390f35b3480156101d4575f5ffd5b506101dd611196565b6040516101ea91906121b3565b60405180910390f35b3480156101fe575f5ffd5b5061021960048036038101906102149190611f2b565b6111bb565b005b348015610226575f5ffd5b5061022f61153f565b60405161023c919061234c565b60405180910390f35b348015610250575f5ffd5b5061026b600480360381019061026691906121cc565b6115ca565b60405161027d969594939291906123c2565b60405180910390f35b348015610291575f5ffd5b506102ac60048036038101906102a791906121cc565b611758565b6040516102b99190612159565b60405180910390f35b3480156102cd575f5ffd5b506102e860048036038101906102e391906121cc565b611c4a565b6040516102f5919061242f565b60405180910390f35b5f8290505f8173ffffffffffffffffffffffffffffffffffffffff166306fdde036040518163ffffffff1660e01b81526004015f60405180830381865afa15801561034b573d5f5f3e3d5ffd5b505050506040513d5f823e3d601f19601f820116820180604052508101906103739190612566565b90505f8273ffffffffffffffffffffffffffffffffffffffff166395d89b416040518163ffffffff1660e01b81526004015f60405180830381865afa1580156103be573d5f5f3e3d5ffd5b505050506040513d5f823e3d601f19601f820116820180604052508101906103e69190612566565b90506040518060c001604052808673ffffffffffffffffffffffffffffffffffffffff1681526020018381526020018281526020018581526020016001151581526020013373ffffffffffffffffffffffffffffffffffffffff168152505f5f8773ffffffffffffffffffffffffffffffffffffffff1673ffffffffffffffffffffffffffffffffffffffff1681526020019081526020015f205f820151815f015f6101000a81548173ffffffffffffffffffffffffffffffffffffffff021916908373ffffffffffffffffffffffffffffffffffffffff16021790555060208201518160010190816104d991906127aa565b5060408201518160020190816104ef91906127aa565b50606082015181600301556080820151816004015f6101000a81548160ff02191690831515021790555060a08201518160040160016101000a81548173ffffffffffffffffffffffffffffffffffffffff021916908373ffffffffffffffffffffffffffffffffffffffff160217905550905050600185908060018154018082558091505060019003905f5260205f20015f9091909190916101000a81548173ffffffffffffffffffffffffffffffffffffffff021916908373ffffffffffffffffffffffffffffffffffffffff1602179055503373ffffffffffffffffffffffffffffffffffffffff168573ffffffffffffffffffffffffffffffffffffffff167f3a9a79cd15a41f1359a9a9233af1f78982f570cfef886de45a01769c231b4c8486858560405161062493929190612879565b60405180910390a35050505050565b60605f60018054905090505f8167ffffffffffffffff81111561065957610658612450565b5b60405190808252806020026020018201604052801561069257816020015b61067f611d8f565b8152602001906001900390816106775790505b5090505f5f90505b8281101561093d575f5f600183815481106106b8576106b76128bc565b5b905f5260205f20015f9054906101000a900473ffffffffffffffffffffffffffffffffffffffff1673ffffffffffffffffffffffffffffffffffffffff1673ffffffffffffffffffffffffffffffffffffffff1681526020019081526020015f206040518060c00160405290815f82015f9054906101000a900473ffffffffffffffffffffffffffffffffffffffff1673ffffffffffffffffffffffffffffffffffffffff1673ffffffffffffffffffffffffffffffffffffffff168152602001600182018054610788906125da565b80601f01602080910402602001604051908101604052809291908181526020018280546107b4906125da565b80156107ff5780601f106107d6576101008083540402835291602001916107ff565b820191905f5260205f20905b8154815290600101906020018083116107e257829003601f168201915b50505050508152602001600282018054610818906125da565b80601f0160208091040260200160405190810160405280929190818152602001828054610844906125da565b801561088f5780601f106108665761010080835404028352916020019161088f565b820191905f5260205f20905b81548152906001019060200180831161087257829003601f168201915b5050505050815260200160038201548152602001600482015f9054906101000a900460ff161515151581526020016004820160019054906101000a900473ffffffffffffffffffffffffffffffffffffffff1673ffffffffffffffffffffffffffffffffffffffff1673ffffffffffffffffffffffffffffffffffffffff1681525050828281518110610925576109246128bc565b5b6020026020010181905250808060010191505061069a565b50809250505090565b60018181548110610955575f80fd5b905f5260205f20015f915054906101000a900473ffffffffffffffffffffffffffffffffffffffff1681565b815f5f8273ffffffffffffffffffffffffffffffffffffffff1673ffffffffffffffffffffffffffffffffffffffff1681526020019081526020015f206004015f9054906101000a900460ff16610a0d576040517f08c379a0000000000000000000000000000000000000000000000000000000008152600401610a0490612933565b60405180910390fd5b5f8211610a4f576040517f08c379a0000000000000000000000000000000000000000000000000000000008152600401610a469061299b565b60405180910390fd5b5f5f5f8573ffffffffffffffffffffffffffffffffffffffff1673ffffffffffffffffffffffffffffffffffffffff1681526020019081526020015f206040518060c00160405290815f82015f9054906101000a900473ffffffffffffffffffffffffffffffffffffffff1673ffffffffffffffffffffffffffffffffffffffff1673ffffffffffffffffffffffffffffffffffffffff168152602001600182018054610afb906125da565b80601f0160208091040260200160405190810160405280929190818152602001828054610b27906125da565b8015610b725780601f10610b4957610100808354040283529160200191610b72565b820191905f5260205f20905b815481529060010190602001808311610b5557829003601f168201915b50505050508152602001600282018054610b8b906125da565b80601f0160208091040260200160405190810160405280929190818152602001828054610bb7906125da565b8015610c025780601f10610bd957610100808354040283529160200191610c02565b820191905f5260205f20905b815481529060010190602001808311610be557829003601f168201915b5050505050815260200160038201548152602001600482015f9054906101000a900460ff161515151581526020016004820160019054906101000a900473ffffffffffffffffffffffffffffffffffffffff1673ffffffffffffffffffffffffffffffffffffffff1673ffffffffffffffffffffffffffffffffffffffff168152505090505f610c96826060015185611d5a565b9050803414610cda576040517f08c379a0000000000000000000000000000000000000000000000000000000008152600401610cd190612a03565b60405180910390fd5b5f8260a0015173ffffffffffffffffffffffffffffffffffffffff1634604051610d0390612a4e565b5f6040518083038185875af1925050503d805f8114610d3d576040519150601f19603f3d011682016040523d82523d5f602084013e610d42565b606091505b5050905080610d86576040517f08c379a0000000000000000000000000000000000000000000000000000000008152600401610d7d90612aac565b60405180910390fd5b5f8690508073ffffffffffffffffffffffffffffffffffffffff1663a9059cbb33670de0b6b3a764000089610dbb9190612af7565b6040518363ffffffff1660e01b8152600401610dd8929190612b38565b6020604051808303815f875af1158015610df4573d5f5f3e3d5ffd5b505050506040513d601f19601f82011682018060405250810190610e189190612b89565b610e57576040517f08c379a0000000000000000000000000000000000000000000000000000000008152600401610e4e90612bfe565b60405180910390fd5b3373ffffffffffffffffffffffffffffffffffffffff168773ffffffffffffffffffffffffffffffffffffffff167f9c8515990fd8c61431c4ac8db9b81475f90c292a1dda77731e56c22e64fc764388604051610eb4919061242f565b60405180910390a350505050505050565b610ecd611d8f565b815f5f8273ffffffffffffffffffffffffffffffffffffffff1673ffffffffffffffffffffffffffffffffffffffff1681526020019081526020015f206004015f9054906101000a900460ff16610f59576040517f08c379a0000000000000000000000000000000000000000000000000000000008152600401610f5090612933565b60405180910390fd5b5f5f8473ffffffffffffffffffffffffffffffffffffffff1673ffffffffffffffffffffffffffffffffffffffff1681526020019081526020015f206040518060c00160405290815f82015f9054906101000a900473ffffffffffffffffffffffffffffffffffffffff1673ffffffffffffffffffffffffffffffffffffffff1673ffffffffffffffffffffffffffffffffffffffff168152602001600182018054611004906125da565b80601f0160208091040260200160405190810160405280929190818152602001828054611030906125da565b801561107b5780601f106110525761010080835404028352916020019161107b565b820191905f5260205f20905b81548152906001019060200180831161105e57829003601f168201915b50505050508152602001600282018054611094906125da565b80601f01602080910402602001604051908101604052809291908181526020018280546110c0906125da565b801561110b5780601f106110e25761010080835404028352916020019161110b565b820191905f5260205f20905b8154815290600101906020018083116110ee57829003601f168201915b5050505050815260200160038201548152602001600482015f9054906101000a900460ff161515151581526020016004820160019054906101000a900473ffffffffffffffffffffffffffffffffffffffff1673ffffffffffffffffffffffffffffffffffffffff1673ffffffffffffffffffffffffffffffffffffffff1681525050915050919050565b60025f9054906101000a900473ffffffffffffffffffffffffffffffffffffffff1681565b815f5f8273ffffffffffffffffffffffffffffffffffffffff1673ffffffffffffffffffffffffffffffffffffffff1681526020019081526020015f2060040160019054906101000a900473ffffffffffffffffffffffffffffffffffffffff1673ffffffffffffffffffffffffffffffffffffffff163373ffffffffffffffffffffffffffffffffffffffff1614611289576040517f08c379a000000000000000000000000000000000000000000000000000000000815260040161128090612c66565b60405180910390fd5b825f5f8273ffffffffffffffffffffffffffffffffffffffff1673ffffffffffffffffffffffffffffffffffffffff1681526020019081526020015f206004015f9054906101000a900460ff16611315576040517f08c379a000000000000000000000000000000000000000000000000000000000815260040161130c90612933565b60405180910390fd5b5f8311611357576040517f08c379a000000000000000000000000000000000000000000000000000000000815260040161134e9061299b565b60405180910390fd5b5f8490505f8173ffffffffffffffffffffffffffffffffffffffff166370a08231306040518263ffffffff1660e01b815260040161139591906121b3565b602060405180830381865afa1580156113b0573d5f5f3e3d5ffd5b505050506040513d601f19601f820116820180604052508101906113d49190612c98565b90505f8111611418576040517f08c379a000000000000000000000000000000000000000000000000000000000815260040161140f90612d0d565b60405180910390fd5b8173ffffffffffffffffffffffffffffffffffffffff1663a9059cbb33876040518363ffffffff1660e01b8152600401611453929190612b38565b6020604051808303815f875af115801561146f573d5f5f3e3d5ffd5b505050506040513d601f19601f820116820180604052508101906114939190612b89565b6114d2576040517f08c379a00000000000000000000000000000000000000000000000000000000081526004016114c990612d75565b60405180910390fd5b3373ffffffffffffffffffffffffffffffffffffffff168673ffffffffffffffffffffffffffffffffffffffff167f7b2929a0129e91c002be982e70bea0ff69b1dda1722507dc5b60490b134a985b8760405161152f919061242f565b60405180910390a3505050505050565b606060018054806020026020016040519081016040528092919081815260200182805480156115c057602002820191905f5260205f20905b815f9054906101000a900473ffffffffffffffffffffffffffffffffffffffff1673ffffffffffffffffffffffffffffffffffffffff1681526020019060010190808311611577575b5050505050905090565b5f602052805f5260405f205f91509050805f015f9054906101000a900473ffffffffffffffffffffffffffffffffffffffff169080600101805461160d906125da565b80601f0160208091040260200160405190810160405280929190818152602001828054611639906125da565b80156116845780601f1061165b57610100808354040283529160200191611684565b820191905f5260205f20905b81548152906001019060200180831161166757829003601f168201915b505050505090806002018054611699906125da565b80601f01602080910402602001604051908101604052809291908181526020018280546116c5906125da565b80156117105780601f106116e757610100808354040283529160200191611710565b820191905f5260205f20905b8154815290600101906020018083116116f357829003601f168201915b505050505090806003015490806004015f9054906101000a900460ff16908060040160019054906101000a900473ffffffffffffffffffffffffffffffffffffffff16905086565b60605f5f90505f5f90505b600180549050811015611859578373ffffffffffffffffffffffffffffffffffffffff165f5f6001848154811061179d5761179c6128bc565b5b905f5260205f20015f9054906101000a900473ffffffffffffffffffffffffffffffffffffffff1673ffffffffffffffffffffffffffffffffffffffff1673ffffffffffffffffffffffffffffffffffffffff1681526020019081526020015f2060040160019054906101000a900473ffffffffffffffffffffffffffffffffffffffff1673ffffffffffffffffffffffffffffffffffffffff160361184c57818061184890612d93565b9250505b8080600101915050611763565b505f8167ffffffffffffffff81111561187557611874612450565b5b6040519080825280602002602001820160405280156118ae57816020015b61189b611d8f565b8152602001906001900390816118935790505b5090505f5f90505f5f90505b600180549050811015611c3e578573ffffffffffffffffffffffffffffffffffffffff165f5f600184815481106118f4576118f36128bc565b5b905f5260205f20015f9054906101000a900473ffffffffffffffffffffffffffffffffffffffff1673ffffffffffffffffffffffffffffffffffffffff1673ffffffffffffffffffffffffffffffffffffffff1681526020019081526020015f2060040160019054906101000a900473ffffffffffffffffffffffffffffffffffffffff1673ffffffffffffffffffffffffffffffffffffffff1603611c31575f5f600183815481106119aa576119a96128bc565b5b905f5260205f20015f9054906101000a900473ffffffffffffffffffffffffffffffffffffffff1673ffffffffffffffffffffffffffffffffffffffff1673ffffffffffffffffffffffffffffffffffffffff1681526020019081526020015f206040518060c00160405290815f82015f9054906101000a900473ffffffffffffffffffffffffffffffffffffffff1673ffffffffffffffffffffffffffffffffffffffff1673ffffffffffffffffffffffffffffffffffffffff168152602001600182018054611a7a906125da565b80601f0160208091040260200160405190810160405280929190818152602001828054611aa6906125da565b8015611af15780601f10611ac857610100808354040283529160200191611af1565b820191905f5260205f20905b815481529060010190602001808311611ad457829003601f168201915b50505050508152602001600282018054611b0a906125da565b80601f0160208091040260200160405190810160405280929190818152602001828054611b36906125da565b8015611b815780601f10611b5857610100808354040283529160200191611b81565b820191905f5260205f20905b815481529060010190602001808311611b6457829003601f168201915b5050505050815260200160038201548152602001600482015f9054906101000a900460ff161515151581526020016004820160019054906101000a900473ffffffffffffffffffffffffffffffffffffffff1673ffffffffffffffffffffffffffffffffffffffff1673ffffffffffffffffffffffffffffffffffffffff1681525050838381518110611c1757611c166128bc565b5b60200260200101819052508180611c2d90612d93565b9250505b80806001019150506118ba565b50819350505050919050565b5f5f5f8373ffffffffffffffffffffffffffffffffffffffff1673ffffffffffffffffffffffffffffffffffffffff1681526020019081526020015f206004015f9054906101000a900460ff16611cd6576040517f08c379a0000000000000000000000000000000000000000000000000000000008152600401611ccd90612e24565b60405180910390fd5b5f8290508073ffffffffffffffffffffffffffffffffffffffff166370a08231306040518263ffffffff1660e01b8152600401611d1391906121b3565b602060405180830381865afa158015611d2e573d5f5f3e3d5ffd5b505050506040513d601f19601f82011682018060405250810190611d529190612c98565b915050919050565b5f5f821480611d81575082828385611d729190612af7565b925082611d7f9190612e6f565b145b611d89575f5ffd5b92915050565b6040518060c001604052805f73ffffffffffffffffffffffffffffffffffffffff16815260200160608152602001606081526020015f81526020015f151581526020015f73ffffffffffffffffffffffffffffffffffffffff1681525090565b5f82825260208201905092915050565b7f436f6e747261637420646f6573206e6f742061636365707420457468657220645f8201527f69726563746c7900000000000000000000000000000000000000000000000000602082015250565b5f611e59602783611def565b9150611e6482611dff565b604082019050919050565b5f6020820190508181035f830152611e8681611e4d565b9050919050565b5f604051905090565b5f5ffd5b5f5ffd5b5f73ffffffffffffffffffffffffffffffffffffffff82169050919050565b5f611ec782611e9e565b9050919050565b611ed781611ebd565b8114611ee1575f5ffd5b50565b5f81359050611ef281611ece565b92915050565b5f819050919050565b611f0a81611ef8565b8114611f14575f5ffd5b50565b5f81359050611f2581611f01565b92915050565b5f5f60408385031215611f4157611f40611e96565b5b5f611f4e85828601611ee4565b9250506020611f5f85828601611f17565b9150509250929050565b5f81519050919050565b5f82825260208201905092915050565b5f819050602082019050919050565b611f9b81611ebd565b82525050565b5f81519050919050565b5f82825260208201905092915050565b8281835e5f83830152505050565b5f601f19601f8301169050919050565b5f611fe382611fa1565b611fed8185611fab565b9350611ffd818560208601611fbb565b61200681611fc9565b840191505092915050565b61201a81611ef8565b82525050565b5f8115159050919050565b61203481612020565b82525050565b5f60c083015f83015161204f5f860182611f92565b50602083015184820360208601526120678282611fd9565b915050604083015184820360408601526120818282611fd9565b91505060608301516120966060860182612011565b5060808301516120a9608086018261202b565b5060a08301516120bc60a0860182611f92565b508091505092915050565b5f6120d2838361203a565b905092915050565b5f602082019050919050565b5f6120f082611f69565b6120fa8185611f73565b93508360208202850161210c85611f83565b805f5b85811015612147578484038952815161212885826120c7565b9450612133836120da565b925060208a0199505060018101905061210f565b50829750879550505050505092915050565b5f6020820190508181035f83015261217181846120e6565b905092915050565b5f6020828403121561218e5761218d611e96565b5b5f61219b84828501611f17565b91505092915050565b6121ad81611ebd565b82525050565b5f6020820190506121c65f8301846121a4565b92915050565b5f602082840312156121e1576121e0611e96565b5b5f6121ee84828501611ee4565b91505092915050565b5f60c083015f83015161220c5f860182611f92565b50602083015184820360208601526122248282611fd9565b9150506040830151848203604086015261223e8282611fd9565b91505060608301516122536060860182612011565b506080830151612266608086018261202b565b5060a083015161227960a0860182611f92565b508091505092915050565b5f6020820190508181035f83015261229c81846121f7565b905092915050565b5f81519050919050565b5f82825260208201905092915050565b5f819050602082019050919050565b5f6122d88383611f92565b60208301905092915050565b5f602082019050919050565b5f6122fa826122a4565b61230481856122ae565b935061230f836122be565b805f5b8381101561233f57815161232688826122cd565b9750612331836122e4565b925050600181019050612312565b5085935050505092915050565b5f6020820190508181035f83015261236481846122f0565b905092915050565b5f61237682611fa1565b6123808185611def565b9350612390818560208601611fbb565b61239981611fc9565b840191505092915050565b6123ad81611ef8565b82525050565b6123bc81612020565b82525050565b5f60c0820190506123d55f8301896121a4565b81810360208301526123e7818861236c565b905081810360408301526123fb818761236c565b905061240a60608301866123a4565b61241760808301856123b3565b61242460a08301846121a4565b979650505050505050565b5f6020820190506124425f8301846123a4565b92915050565b5f5ffd5b5f5ffd5b7f4e487b71000000000000000000000000000000000000000000000000000000005f52604160045260245ffd5b61248682611fc9565b810181811067ffffffffffffffff821117156124a5576124a4612450565b5b80604052505050565b5f6124b7611e8d565b90506124c3828261247d565b919050565b5f67ffffffffffffffff8211156124e2576124e1612450565b5b6124eb82611fc9565b9050602081019050919050565b5f61250a612505846124c8565b6124ae565b9050828152602081018484840111156125265761252561244c565b5b612531848285611fbb565b509392505050565b5f82601f83011261254d5761254c612448565b5b815161255d8482602086016124f8565b91505092915050565b5f6020828403121561257b5761257a611e96565b5b5f82015167ffffffffffffffff81111561259857612597611e9a565b5b6125a484828501612539565b91505092915050565b7f4e487b71000000000000000000000000000000000000000000000000000000005f52602260045260245ffd5b5f60028204905060018216806125f157607f821691505b602082108103612604576126036125ad565b5b50919050565b5f819050815f5260205f209050919050565b5f6020601f8301049050919050565b5f82821b905092915050565b5f600883026126667fffffffffffffffffffffffffffffffffffffffffffffffffffffffffffffffff8261262b565b612670868361262b565b95508019841693508086168417925050509392505050565b5f819050919050565b5f6126ab6126a66126a184611ef8565b612688565b611ef8565b9050919050565b5f819050919050565b6126c483612691565b6126d86126d0826126b2565b848454612637565b825550505050565b5f5f905090565b6126ef6126e0565b6126fa8184846126bb565b505050565b5b8181101561271d576127125f826126e7565b600181019050612700565b5050565b601f821115612762576127338161260a565b61273c8461261c565b8101602085101561274b578190505b61275f6127578561261c565b8301826126ff565b50505b505050565b5f82821c905092915050565b5f6127825f1984600802612767565b1980831691505092915050565b5f61279a8383612773565b9150826002028217905092915050565b6127b382611fa1565b67ffffffffffffffff8111156127cc576127cb612450565b5b6127d682546125da565b6127e1828285612721565b5f60209050601f831160018114612812575f8415612800578287015190505b61280a858261278f565b865550612871565b601f1984166128208661260a565b5f5b8281101561284757848901518255600182019150602085019450602081019050612822565b868310156128645784890151612860601f891682612773565b8355505b6001600288020188555050505b505050505050565b5f60608201905061288c5f8301866123a4565b818103602083015261289e818561236c565b905081810360408301526128b2818461236c565b9050949350505050565b7f4e487b71000000000000000000000000000000000000000000000000000000005f52603260045260245ffd5b7f546f6b656e206e6f7420537570706f72746564210000000000000000000000005f82015250565b5f61291d601483611def565b9150612928826128e9565b602082019050919050565b5f6020820190508181035f83015261294a81612911565b9050919050565b7f416d6f756e74206d7573742062652067726561746572207468616e20300000005f82015250565b5f612985601d83611def565b915061299082612951565b602082019050919050565b5f6020820190508181035f8301526129b281612979565b9050919050565b7f496e76616c696420457468657220616d6f756e742073656e74000000000000005f82015250565b5f6129ed601983611def565b91506129f8826129b9565b602082019050919050565b5f6020820190508181035f830152612a1a816129e1565b9050919050565b5f81905092915050565b50565b5f612a395f83612a21565b9150612a4482612a2b565b5f82019050919050565b5f612a5882612a2e565b9150819050919050565b7f5472616e73616374696f6e204661696c656421000000000000000000000000005f82015250565b5f612a96601383611def565b9150612aa182612a62565b602082019050919050565b5f6020820190508181035f830152612ac381612a8a565b9050919050565b7f4e487b71000000000000000000000000000000000000000000000000000000005f52601160045260245ffd5b5f612b0182611ef8565b9150612b0c83611ef8565b9250828202612b1a81611ef8565b91508282048414831517612b3157612b30612aca565b5b5092915050565b5f604082019050612b4b5f8301856121a4565b612b5860208301846123a4565b9392505050565b612b6881612020565b8114612b72575f5ffd5b50565b5f81519050612b8381612b5f565b92915050565b5f60208284031215612b9e57612b9d611e96565b5b5f612bab84828501612b75565b91505092915050565b7f5472616e73616374696f6e204661696c656400000000000000000000000000005f82015250565b5f612be8601283611def565b9150612bf382612bb4565b602082019050919050565b5f6020820190508181035f830152612c1581612bdc565b9050919050565b7f43616c6c6572206973206e6f742074686520746f6b656e2063726561746f72005f82015250565b5f612c50601f83611def565b9150612c5b82612c1c565b602082019050919050565b5f6020820190508181035f830152612c7d81612c44565b9050919050565b5f81519050612c9281611f01565b92915050565b5f60208284031215612cad57612cac611e96565b5b5f612cba84828501612c84565b91505092915050565b7f496e73756666696369656e7420546f6b656e2042616c616e63652100000000005f82015250565b5f612cf7601b83611def565b9150612d0282612cc3565b602082019050919050565b5f6020820190508181035f830152612d2481612ceb565b9050919050565b7f546f6b656e205472616e73666572204661696c656421000000000000000000005f82015250565b5f612d5f601683611def565b9150612d6a82612d2b565b602082019050919050565b5f6020820190508181035f830152612d8c81612d53565b9050919050565b5f612d9d82611ef8565b91507fffffffffffffffffffffffffffffffffffffffffffffffffffffffffffffffff8203612dcf57612dce612aca565b5b600182019050919050565b7f546f6b656e204e6f7420537570706f72746564000000000000000000000000005f82015250565b5f612e0e601383611def565b9150612e1982612dda565b602082019050919050565b5f6020820190508181035f830152612e3b81612e02565b9050919050565b7f4e487b71000000000000000000000000000000000000000000000000000000005f52601260045260245ffd5b5f612e7982611ef8565b9150612e8483611ef8565b925082612e9457612e93612e42565b5b82820490509291505056fea2646970667358221220237bc754bea80899d937cb89b7f154bb7a558cc7f62e5189763e89caad92897c64736f6c634300081c0033",
  "linkReferences": {},
  "deployedLinkReferences": {},
  "immutableReferences": {},
  "inputSourceName": "project/contracts/PreSale.sol",
  "buildInfoId": "solc-0_8_28-1d711471faefdb694f73cfa30afc1bfab8f3150f"
}